:100000000A128A11F42FFF1B0D2883137F18831700
:100010000008840A0319FF0A080000308A00040857
:10002000840A82070034543465346D347034653486
:0E0030007234613474347534723465340034C3
:1008820008340A128A115E240A128A11831603138B
:10089200111408000A128A115E240A128A118316A0
:1008A2000313111508000A128A115E240A128A1112
:1008B20083160313911611160800831603131419D5
:1008C200632C642C5E2C11081F39031D692C6A2CC1
:1008D2005E2C08002830831203139400831603133E
:1008E2009101940109309300871507160800F00062
:1008F2000A128A115E240A128A11700883120313E3
:1009020093000A128A115E240A128A1108000A123E
:100912008A115E240A128A118316031391150A1290
:100922008A115E240A128A11831203131308F0003B
:100932000A128A1154240A128A1170080800F3005C
:100942007D08FF007F08F304730804380A128A1135
:10095200EE240A128A117308FB390A128A11EE2454
:100962000A128A111030F200F20BB52C00000800B6
:10097200F500FD017508F0390A128A11A0240A1245
:100982008A117508F40003300310F40DFF3E031DB5
:10099200C52C0310740DF0390A128A11A0240A1210
:1009A2008A110800F500FD01FD0A7508F0390A12E6
:1009B2008A11A0240A128A117508F4000330031068
:1009C200F40DFF3E031DE02C0310740DF0390A12E2
:1009D2008A11A0240A128A110800F1000A128A114F
:1009E20042240A128A11831203134A080A128A1134
:1009F20078240A128A117108831203134C040A1212
:100A02008A1178240A128A110A128A114B240A12B4
:100A12008A110800F3000A128A1142240A128A116A
:100A2200A0300A128A1178240A128A1173080A1253
:100A32008A1178240A128A1171080A128A117824FA
:100A42000A128A1172080A128A1178240A128A1169
:100A52000A128A114B240A128A110800F900512D38
:100A62007608BF3E0A128A11B9240A128A11642D2D
:100A72007608933E0A128A11B9240A128A11642D49
:100A82007608D33E0A128A11B9240A128A11642DF9
:100A920076087F3E0A128A11B9240A128A11642D3D
:100AA2007908F700F8017808003A0319592D492D01
:100AB2007708023A0319312D013A0319392D073A01
:100AC2000319412D492D0800FB01FC018A2D7B08E9
:100AD2007607F9007708F8000318F80AFB1F722D51
:100AE200F8037808FA007A0883120313FF007908E2
:100AF20084000A128A1103200A128A110A128A1128
:100B0200D3240A128A110130FB070318FC0A0030B1
:100B1200FC077B087607F9007708F8000318F80A43
:100B2200FB1F942DF8037808FA007A088312031346
:100B3200FF00790884000A128A1103200A128A111E
:100B4200003A031DA52DA62D682D0800F501F31FFF
:100B5200AB2DAC2DB32DF209F309F20A0319F30AF6
:100B6200F501F50AF11FB62DB72DBC2DF009F109DB
:100B7200F00A0319F10A700871040319C12DC22D7C
:100B8200F12DF401F40AD02D01300310F00DF10D16
:100B9200FF3E031DC62D0130FF007F08F407F11F41
:100BA200D32DD42DC52D71087302031DDA2D7008C3
:100BB2007202031CDD2DDE2DE42D7008F202710895
:100BC200031CF303F30201300310F10CF00CFF3E9F
:100BD200031DE52D0130F402031DF02DF12DD42D5E
:100BE20075080319F52DF62DFB2DF209F309F20A0A
:100BF2000319F30A7308F1007208F0000800F50106
:100C0200F11F042E052E0C2EF009F109F00A03192A
:100C1200F10AF501F50AF31F0F2E102E192EF20913
:100C2200F309F20A0319F30A0130FF007F08F506FF
:100C3200F601F701700871040319202E212E582E97
:100C4200F401F40A2F2E01300310F00DF10DFF3ED6
:100C5200031D252E0130FF007F08F407F11F322EFD
:100C6200332E242E01300310F60DF70DFF3E031D27
:100C7200342E71087302031D402E70087202031C89
:100C8200432E442E4B2E7008F2027108031CF3030C
:100C9200F302761401300310F10CF00CFF3E031D39
:100CA2004C2E0130F402031D572E582E332E750898
:100CB20003195C2E5D2E622EF609F709F60A031956
:100CC200F70A7708F1007608F00008008312031390
:100CD200A600A701A8017908A5007808A4008A2E19
:100CE2000130A7070318A80A0030A8070A30F0004D
:100CF2000030F1002508F3002408F2000A128A11DC
:100D020000260A128A11710883120313A5007008C3
:100D1200A40024082504031D8F2E902E712EA201FB
:100D2200A301CD2E0A30F0000030F1007908F30063
:100D32007808F2000A128A11A7250A128A1171088C
:100D420083120313A1007008A0000A30F0000030E3
:100D5200F1007908F3007808F2000A128A110026DD
:100D62000A128A117108F9007008F800831203133D
:100D72002608FA002208FA0227087A07FB007B08F5
:100D8200FF3E84002008303E831380000130A2071A
:100D92000318A30A0030A3072308803AFA002808A0
:100DA200803A7A02031DD72E27082202031CDA2E6C
:100DB200DB2E932E8312031327082607FA007A08E4
:100DC20084008313800108008316031388010A122A
:100DD2008A116B240A128A114E300A128A116C2768
:100DE2000A128A11F601F60A01300A128A112F2517
:100DF2000A128A110130F6008030F7000A128A11B5
:100E020065250A128A110A128A1142240A128A11CB
:100E120041300A128A1178240A128A110A128A119E
:100E220088240A128A1183120313CB000A128A1130
:100E32004B240A128A1183120313081403308312FB
:100E42000313AB008A30AA005530A900A90B272F43
:100E5200AA0B272FAB0B272F831203134B08A900D2
:100E6200AA012908F8002A08F9002C300A128A116E
:100E720067260A128A113830F100831203134B08D5
:100E8200F20031300A128A110B250A128A11F60178
:100E9200F60A02300A128A112F250A128A112C3000
:100EA200F6000030F7000A128A1165250A128A112B
:100EB2000D3083120313AB00AF30AA00B530A90086
:100EC200A90B612FAA0B612FAB0B612F682F042F87
:100ED2000A128A110028F800780883120313CA0044
:100EE20000300A128A11EE240A128A112730F70002
:100EF200F530F600F60B7B2FF70B7B2F03300A122F
:100F02008A11B9240A128A110730F7007D30F600DF
:100F1200F60B892FF70B892F03300A128A11B92495
:100F22000A128A110730F7007D30F600F60B972F70
:100F3200F70B972F03300A128A11B9240A128A1169
:100F42000730F7007D30F600F60BA52FF70BA52F23
:100F520002300A128A11B9240A128A110730F700E4
:100F62007D30F600F60BB32FF70BB32F28300A12A1
:100F72008A11B9240A128A114130F700EE30F600C4
:100F8200F60BC12FF70BC12F00000C300A128A1189
:100F9200B9240A128A114130F700EE30F600F60B3E
:100FA200D02FF70BD02F000001300A128A11B9247A
:100FB2000A128A114130F700EE30F600F60BDF2FED
:100FC200F70BDF2F000006300A128A11B9240A1229
:100FD2008A114130F700EE30F600F60BEE2FF70BD8
:100FE200EE2F000008000A128A1141240A128A1107
:0E0FF200CC00CB01FD0183010A128A11E52E0D
:02400E00713F00
:00000001FF
