:060000000A128A110E280D
:10000800FE00030EFA000A08FB007F08FC000A1233
:100018008A11CC2E0A128A1111288313A030840069
:10002800D2300A128A1186270A128A1183010A120B
:100038008A11622E8312031331088039BB003108FC
:10004800B6003607C100B01F2A282B282C284114D7
:1000580041080319302831284028410A031D352852
:1000680036283E280030B1000030B0000030AF0024
:100078000030AE00B01748280030B1000030B000A2
:100088000030AF000030AE0035088039FF007F082F
:10009800BB063508B6003607C000B41F54285528DB
:1000A80056284014400803195A285B286A28400A31
:1000B800031D5F28602868280030B5000030B400B0
:1000C8000030B3000030B200B41772280030B50019
:1000D8000030B4000030B3000030B200400803190B
:1000E800762877287C284108031D7B287C288528CA
:1000F8000030B1000030B0000030AF000030AE007A
:10010800622B2E08A00034080A128A1138270A1216
:100118008A11831203132108C7002008C600460865
:10012800B600B701B801B9013908BF003808BE00E8
:100138003708BD003608BC004708B600B701B8014B
:10014800B9013908C5003808C4003708C3003608A3
:10015800C2002F08A00033080A128A1138270A1291
:100168008A11831203132108C7002008C600460815
:10017800B600B701B801B9013608BC073708031142
:100188000318013E0319C928BD07380803110318CD
:10019800013E0319D028BE07390803110318013E90
:1001A8000319D728BF074708B600B701B801B90136
:1001B8003608C207370803110318013E0319E5285A
:1001C800C307380803110318013E0319EC28C407B4
:1001D800390803110318013E0319F328C50730082D
:1001E800A00032080A128A1138270A128A118312CB
:1001F80003132108C7002008C6004608B600B70147
:10020800B801B9013608BC07370803110318013EC5
:1002180003190F29BD07380803110318013E0319F4
:100228001629BE07390803110318013E03191D29B1
:10023800BF074708B600B701B801B9013608C207B9
:10024800370803110318013E03192B29C30738087F
:1002580003110318013E03193229C4073908031191
:100268000318013E03193929C5070830B6000310E1
:10027800BC0DBD0DBE0DBF0DB60B3B292F08A00050
:1002880032080A128A1138270A128A1183120313B4
:100298002108C7002008C6004608B6004708B7006E
:1002A800B801B9013608BC07370803110318013E25
:1002B80003195F29BD07380803110318013E031904
:1002C8006629BE07390803110318013E03196D2971
:1002D800BF072E08A00033080A128A1138270A120D
:1002E8008A11831203132108C7002008C600460894
:1002F800B6004708B700B801B9013608BC07370887
:1003080003110318013E03198A29BD073808031190
:100318000318013E03199129BE0739080311031870
:10032800013E03199829BF070830B6000310BC0D19
:10033800BD0DBE0DBF0DB60B9A292E08A0003208C0
:100348000A128A1138270A128A1183120313210804
:10035800C7002008C6004608B6004708B700B8011D
:10036800B9013608BC07370803110318013E031901
:10037800BE29BD07380803110318013E0319C52912
:10038800BE07390803110318013E0319CC29BF071A
:100398002F08A00034080A128A1138270A128A1175
:1003A800831203132108C7002008C6004608B600B8
:1003B8004708B700B801B9013608C2073708031162
:1003C8000318013E0319E929C30738080311031864
:1003D800013E0319F029C407390803110318013E27
:1003E8000319F729C5073008A00033080A128A1133
:1003F80038270A128A11831203132108C70020081C
:10040800C6004608B6004708B700B801B901360863
:10041800C207370803110318013E0319142AC3073A
:10042800380803110318013E03191B2AC4073908A9
:1004380003110318013E0319222AC5073008A0003A
:1004480034080A128A1138270A128A1183120313F0
:100458002108C7002008C6004608B6004708B700AC
:10046800B801B90108300310B60DB70DB80DB90DB4
:10047800FF3E031D372A3608C20737080311031841
:10048800013E0319482AC307380803110318013E1F
:1004980003194F2AC407390803110318013E031929
:1004A800562AC5073C08B6003D08B7003E08B80004
:1004B8003F08B90018300310B90CB80CB70CB60CCB
:1004C800FF3E031D5F2A3608C207370803110318C9
:1004D800013E0319702AC307380803110318013EA7
:1004E8000319772AC407390803110318013E0319B1
:1004F8007E2AC5070830B6000310BC0DBD0DBE0D21
:10050800BF0DB60B802A41084007B600B701B70DEA
:100518003608823EC60037080318013EFF3EC70072
:10052800B22A0130B6000310C20DC30DC40DC50DAB
:10053800B60B972ABF1FA12AA22AA32A4214013068
:10054800B6000310BC0DBD0DBE0DBF0DB60BA52A20
:10055800FF30C6070318C70AFF30C707C41FB52AEC
:10056800B62A952AC001BF1FBA2ABB2AD72AFF304C
:100578003C05B600FF303D05B700FF303E05B8002A
:100588007F303F05B90039083804370436040319A9
:10059800CE2ACF2AD22AC001C00AD72A421CD52A7D
:1005A800D62AD72ACF2A40080319DB2ADC2A0D2BA2
:1005B8000130C207003003180130C30700300318A8
:1005C8000130C407003003180130C507451CED2A67
:1005D800EE2A0D2B4208B6004308B7004408B800BD
:1005E8004508B9000130BA00390DB90CB80CB70C80
:1005F800B60CBA0BF82A3908C5003808C400370801
:10060800C3003608C2000130C6070318C70A003005
:10061800C7074708803AFF0080307F02031D162B6A
:10062800FF304602031C192B1A2B252B7F3083120F
:100638000313C5008030C4000030C3000030C2007E
:10064800562B831203134708803AFF0080307F023D
:10065800031D302B013046020318332B342B402B5B
:10066800003083120313C5000030C4000030C300FB
:100678000030C200BB01562B831203134608C10089
:10068800FF30C205FF30C3057F30C4050030C50503
:10069800411C4F2B502B512BC4174108B600031097
:1006A800360CC5003B08FF007F08C5044508B100AB
:1006B8004408B0004308AF004208AE0008008312A7
:1006C800031327088039B1002708A8002807B800B5
:1006D800A61F6F2B702B712B381438080319752B34
:1006E800762B862B380A031D7A2B7B2B832B003025
:1006F800A7000030A6000030A5000030A400A6170F
:10070800A7018E2B0030A7000030A6000030A500FE
:100718000030A40023088039FF007F08B1062308B1
:10072800A8002807B900A21F9A2B9B2B9C2B3914D1
:1007380039080319A02BA12BB12B390A031DA52BAE
:10074800A62BAE2B0030A3000030A2000030A10081
:100758000030A000A217A301B92B0030A30000307D
:10076800A2000030A1000030A000230822042104C8
:100778002004031DC02BC12BDA2B0030A70000304A
:10078800A6000030A5000030A4008030A6047F3009
:10079800A7043108FF007F08A7042708A30026083C
:1007A800A2002508A1002408A000312D3808031D47
:1007B800DE2BDF2BE82B0030A3000030A200003036
:1007C800A1000030A000312D3808A800A90129088F
:1007D800AB0039082802AA00031CAB032A087F3E95
:1007E800B2002B080318013E003EB3002708B000F2
:1007F8002608AF002508AE002408AD000030A70089
:100808000030A6000030A5000030A4000030B7007A
:100818000030B6000030B5000030B400B9015E2CDD
:1008280039080319182C192C392C0130A800031089
:10083800AD0DAE0DAF0DB00DA80B1B2C0130A800EF
:100848000310A40DA50DA60DA70DA80B242CB71FEA
:100858002E2C2F2C302C24140130A8000310B40D9A
:10086800B50DB60DB70DA80B322C23083002031DA9
:10087800472C22082F02031D472C21082E02031D96
:10088800472C20082D02031C4A2C4B2C5A2C3717B6
:100898002008AD022108031C210FAE022208031C08
:1008A800220FAF022308031C230FB0020130FF0000
:1008B8007F08B9071A303902031C632C642C142CE6
:1008C80030082F042E042D0403196B2C6C2C8B2C50
:1008D80034148B2C0130A8000310A40DA50DA60D0F
:1008E800A70DA80B702CB71F7A2C7B2C7C2C2414FA
:1008F8000130A8000310B40DB50DB60DB70DA80B47
:100908007E2CFF30B2070318B30AFF30B307A61FC7
:100918008E2C8F2C6E2CB901B71F932C942CB02CD5
:10092800FF303405A800FF303505A900FF30360533
:10093800AA007F303705AB002B082A0429042804B5
:100948000319A72CA82CAB2CB901B90AB02C241C6C
:10095800AE2CAF2CB02CA82C39080319B42CB52C0C
:10096800E62C0130A407003003180130A507003039
:1009780003180130A607003003180130A707271C09
:10098800C62CC72CE62C2408A8002508A900260890
:10099800AA002708AB000130AC002B0DAB0CAA0C49
:1009A800A90CA80CAC0BD12C2B08A7002A08A60070
:1009B8002908A5002808A4000130B2070318B30AC3
:1009C8000030B3073308803AFF0080307F02031DF0
:1009D800EF2CFF303202031CF22CF32C012DFF30D8
:1009E80083120313B2000030B3000030A7000030B8
:1009F800A6000030A5000030A400831203133308BA
:100A0800803AFF0080307F02031D0C2D0130320236
:100A180003180F2D102D1D2D83120313B201B301DE
:100A28000030A7000030A6000030A5000030A40068
:100A3800B101831203133208B800381C242D252D68
:100A4800272DA6172B2D7F30FF007F08A605380815
:100A5800A8000310280CA700CD2B0800831203134D
:100A6800A80028080319392D3A2D4E2DA31F3D2D16
:100A78003E2D4E2D2009AA002109AB002209AC0009
:100A88002309AD00AA0A0319AB0A0319AC0A031912
:100A9800AD0A562D2308AD002208AC002108AB0092
:100AA8002008AA002308220421042004031D5D2D28
:100AB8005E2D672D0030A3000030A2000030A10099
:100AC8000030A000EB2D9630A900772D0130FF00F3
:100AD8007F08A90701300310AD0CAC0CAB0CAA0CB5
:100AE800FF3E031D6F2DFE302D05031D7C2D7D2D32
:100AF8006A2D992D0130FF007F08A9070130AA0748
:100B0800003003180130AB07003003180130AC0780
:100B1800003003180130AD0701300310AD0CAC0CE8
:100B2800AB0CAA0CFF3E031D912DFF302D05031DB4
:100B38009E2D9F2D7E2DAB2D0130A9020130A400E2
:100B48000310AA0DAB0DAC0DAD0DA40BA42DAC1B61
:100B5800AE2DAF2DB52D023029020318B42DB52DB9
:100B6800A02D2918B82DB92DC12DFF30AA05FF30A9
:100B7800AB057F30AC05FF30AD050310A90C290883
:100B8800A400A501A601A70118300310A40DA50D06
:100B9800A60DA70DFF3E031DC92D2408AA0425088C
:100BA800AB042608AC042708AD0428080319DD2D7A
:100BB800DE2DE32DA31FE12DE22DE32DAD172D082A
:100BC800A3002C08A2002B08A1002A08A0000800F6
:100BD8000310720D730DF9007908031DF42DF52D1E
:100BE800FE2D0030F3000030F2000030F10000303C
:100BF800F000612E7008F4007108F5007208F60024
:100C08007308F7001F300310F70CF60CF50CF40C02
:100C1800FF3E031D072E7408F800F217FF30F00599
:100C2800FF30F105FF30F2050030F3059630F90288
:100C3800F91F1F2E202E3A2E7908803A973E031866
:100C4800262E272E282EF52D01300310F30CF20C3A
:100C5800F10CF00CFF3E031D292E0130FF007F0828
:100C6800F907031D382E392E282E512E20307902EF
:100C7800031C3F2E402E4C2EF52D0130F40003109E
:100C8800F00DF10DF20DF30DF40B432E0130F902C6
:100C98007908031D502E512E412E78080319552E20
:100CA800562E612EF009F109F209F309F00A031929
:100CB800F10A0319F20A0319F30A08000A128A1141
:100CC8007D270A128A1140300A128A1161270A12F6
:100CD8008A1183120313860100300A128A1105272C
:100CE8000A128A11831203132108D1002008D000A8
:100CF8003B30B1009F30B000FF30AF00E530AE00B0
:100D08005008A0005108A100A201A30100300A1256
:100D18008A1132250A128A11831203132308B50097
:100D28002208B4002108B3002008B2000A128A1170
:100D38001E200A128A11831203133108CB003008CF
:100D4800CA002F08C9002E08C8003C30A300233071
:100D5800A200D730A1000A30A0004B08A7004A081B
:100D6800A6004908A5004808A4000A128A116323AE
:100D78000A128A11831203132308CF002208CE0017
:100D88002108CD002008CC00702E0A128A110E28E6
:100D9800831203138C1DD12ED22EFC2E831603131F
:100DA800941AD72ED82EF82E141DDB2EDC2EF82EF2
:100DB80083120313061413084F08F3004E08F200B9
:100DC8004D08F1004C08F0000A128A11EC250A12AD
:100DD8008A117008831203139300141683160313E1
:100DE8001418F72EF82EF22E8312031314168C11F2
:100DF8007C08FF007B088A007A0E8300FE0E7E0EB8
:100E0800090083120313A30008302302031C0D2FCB
:100E18000E2F112FA001A101372F0130FF007F08ED
:100E28009F052308A20002300310A20DFF3E031DF8
:100E3800182F0310220DFF007F089F04093083122A
:100E48000313A200A20B262F831203131F151F19C9
:100E58002E2F2F2F2B2F1E08A100831603131E08D9
:100E680083120313A000080083120313A800A4012F
:100E7800A5012008A200A3012208A6002308A700B4
:100E8800281C472F482F4E2F2608A4070318A50A09
:100E98002708A50701300310A60DA70DFF3E031D67
:100EA8004F2F0310A80C2808031D5B2F5C2F442F1D
:100EB8002508A1002408A000080083120313A0003D
:100EC8002008831603139300803094003630831271
:100ED8000313940001308316031391008715071636
:100EE800831203138C11831603138C150B178B179E
:100EF80008004130831203139F00803083160313C8
:100F08009F00080064008001840A04060319003465
:040F18000406872F15
:02400E00713F00
:00000001FF
